:1000000012C02CC02BC02AC029C028C027C026C0BF
:1000100025C024C023C050C021C020C01FC01EC0A6
:100020001DC01CC01BC011241FBECFE5D4E0DEBF25
:10003000CDBF10E0A0E6B0E0EAEBF2E002C0059030
:100040000D92AE36B107D9F710E0AEE6B0E001C0D0
:100050001D92A837B107E1F7E5D02DC1D1CF8A3085
:1000600041F45D9BFECF8DE08CB95D9BFECF8AE0B5
:1000700002C05D9BFECF8CB980E090E00895F894BB
:1000800083E389B981E087BB94E094BB92E091BBA4
:1000900085BB98E99AB98093710010926F00109215
:1000A0006E00C09AAA9AAD9A80E690E0909375008F
:1000B00080937400789408951F920F920FB60F9258
:1000C00011248F939F93AF93BF93F8945F9BFECFC0
:1000D0008CB18093700080917000813399F480918D
:1000E0006F00813011F4AA982DC0AA981092710067
:1000F0008FEF91E1AAE781509040A040E1F700C066
:10010000000020C080917000843311F4AA9A1AC0B4
:1001100080917000863311F4C09A14C080917000F1
:10012000873311F4C0980EC080917000843521F49B
:1001300081E080936F0006C080917000863411F4D6
:1001400010926F007894BF91AF919F918F910F9013
:100150000FBE0F901F90189520E030E0AA984FEF47
:100160005EE964E2415050406040E1F700C00000A9
:10017000AA9A4FEF5EE964E2415050406040E1F7D7
:1001800000C000002F5F3F4F821793073CF7089590
:1001900080916F008823B9F580917100882351F414
:1001A000989914C080E390E054D0AA9A81E080939B
:1001B00071000CC080917100813041F4989B06C0A1
:1001C00083E090E0C9DF82E080936E0080916E0052
:1001D000823049F4989B07C080917100813019F4F6
:1001E00082E390E036D080916E008230D1F498990D
:1001F00018C0809171008130A1F482E790E029D08D
:1002000010926E00089580916F00813051F498999A
:1002100003C083E690E01DD0989B03C08FE690E07A
:1002200018D00895AC9A8FEF92E5A7E081509040E6
:10023000A040E1F700C00000AC9821DFA9DF8FEFFC
:1002400099E6A8E181509040A040E1F700C000008D
:10025000F5CF609174007091750001D008950F93EF
:100260001F93CF93DF938C01EB018B8181FF1BC028
:1002700082FF0DC02E813F818C819D812817390717
:1002800064F4E881F9810193F983E88306C0E88585
:10029000F985802F0995009731F48E819F81019611
:1002A0009F838E8302C00FEF1FEFC801DF91CF91B4
:0A02B0001F910F910895F894FFCFFD
:0E02BA0000000002000000002F000000000005
:00000001FF
