:1000000012C02CC02BC02AC029C028C027C026C0BF
:1000100025C024C023C051C021C020C01FC01EC0A5
:100020001DC01CC01BC011241FBECFE5D4E0DEBF25
:10003000CDBF10E0A0E6B0E0EEE8F8E002C0059029
:100040000D92A838B107D9F710E0A8E8B0E001C0D8
:100050001D92A239B107E1F745D117C4D1CF8A303B
:1000600041F45D9BFECF8DE08CB95D9BFECF8AE0B5
:1000700002C05D9BFECF8CB980E090E00895F894BB
:100080009CE099B983E087BB94BB92E091BB85BBB0
:1000900088E98AB981E080938A0080938B0010926E
:1000A0008800C09AC19AAA9AAB9A8AE790E0909386
:1000B0008F0080938E00789408951F920F920FB650
:1000C0000F9211248F939F93AF93BF93F8945F9BEC
:1000D000FECF8CB18093890080918900813351F4E7
:1000E00080918800813011F4AA984BC0AA98109290
:1000F0008A0011C080918900833311F4AA9A41C00B
:1001000080918900843389F480918800813089F05E
:10011000AB9810928B008FEF91E1AAE7815090404D
:10012000A040E1F700C000002CC080918900853319
:1001300011F4AB9A26C080918900863311F4C09ADD
:1001400020C080918900873311F4C0981AC0809133
:100150008900883311F4C19A14C0809189008933D1
:1001600011F4C1980EC080918900843521F481E09A
:100170008093880006C080918900863411F4109223
:1001800088007894BF91AF919F918F910F900FBE8F
:100190000F901F9018956230710571F400D080E6C1
:1001A00090E0EDB7FEB792838183A8D082E0809380
:1001B0008A000F900F9008956330710569F400D0A4
:1001C00085E690E0EDB7FEB79283818397D082E019
:1001D00080938B000F900F90089580918800882362
:1001E00009F057C080918A00882399F49A9925C014
:1001F00000D08AE690E0ADB7BEB712969C938E937E
:1002000011977CD0AA9A81E080938A000F900F907A
:1002100014C080918A00813081F49A9B0EC08FEFC8
:1002200091E1AAE781509040A040E1F700C00000B2
:1002300083E090E062E070E0AEDF80918B00882385
:1002400099F49B994EC000D08FE690E0ADB7BEB751
:1002500012969C938E93119751D0AB9A81E0809324
:100260008B000F900F90089580918B008130C9F51D
:100270009B9B37C08FEF91E1AAE781509040A0404F
:10028000E1F700C0000083E090E063E070E083DF0E
:10029000089580918800813021F5989903C083E604
:1002A00090E03ED0989B03C08FE690E039D09999BA
:1002B0000CC000D084E790E0ADB7BEB712969C9317
:1002C0008E9311971BD00F900F90999B0AC000D06E
:1002D00087E790E0EDB7FEB7928381830FD00F9050
:1002E0000F900895CCDE79DF8FEF99E6A8E1815079
:1002F0009040A040E1F700C00000F5CFA0E0B0E0E2
:10030000E3E8F1E09BC2FE01359661917191809125
:100310008E0090918F00AF0109D02096E2E0AAC232
:1003200060918E0070918F00EFD10895ACE0B0E045
:10033000EBE9F1E073C26C011B018A01FC01178239
:100340001682838181FFC4C12E010894411C511C77
:10035000F6019381F10193FD859193FF81911F0136
:10036000882309F4B1C1853239F493FD859193FF57
:1003700081911F01853221F490E0B601C5D1E8CF0B
:10038000EE24FF2420E02032B0F48B3269F08C326E
:1003900028F4803251F0833271F40BC08D3239F081
:1003A000803349F421602CC02260246029C0286079
:1003B00027C0206125C027FD2CC0382F30533A308C
:1003C00098F426FF08C08E2D880FE82EEE0CEE0C58
:1003D000E80EE30E15C08F2D880FF82EFF0CFF0CD2
:1003E000F80EF30E20620CC08E3221F426FD6CC193
:1003F000206406C08C3611F4206802C0883649F4A7
:10040000F10193FD859193FF81911F01882309F0EC
:10041000BACF982F9554933018F09052933028F417
:100420000C5F1F4FFFE3F9830DC0833631F0833734
:1004300071F0833509F05CC021C0F80180818983A7
:100440000E5F1F4F420171E0A72EB12C15C062E074
:10045000662E712C600E711EF8018080918026FF3F
:1004600003C06E2D70E002C06FEF7FEFC4012C87D8
:1004700040D15C0183012C852F7716C052E0652E98
:10048000712C600E711EF8018080918026FF03C0E0
:100490006E2D70E002C06FEF7FEFC4012C871ED17C
:1004A0005C012C852068830123FD1EC007C080E20B
:1004B00090E0B6012C8728D1FA942C858F2D90E0FE
:1004C000A816B906A0F310C0F40127FD859127FFF7
:1004D00081914F0190E0B6012C8716D12C85F11047
:1004E000FA940894A108B108A114B10469F7E9C00D
:1004F000843611F0893641F527FF08C0F801608184
:100500007181828193810C5F1F4F09C0F801608166
:100510007181882777FD8095982F0E5F1F4F4FE6DA
:10052000B42EB22297FF09C0909580957095619581
:100530007F4F8F4F9F4FF0E8BF2AA2012AE030E0A3
:100540000FD1782E741844C0853731F43FEEB32EA6
:10055000B2222AE030E025C099EFB92EB2228F36C0
:10056000C1F0803720F4883509F0AEC00DC0803767
:1005700021F0883709F0A8C002C020E1B22AB4FEF9
:100580000BC084E0B82A08C0B4FE09C0E6E0BE2A69
:1005900006C028E030E005C020E130E002C020E1E4
:1005A00032E0B7FE08C0F8016081718182819381D9
:1005B0000C5F1F4F07C0F8016081718180E090E0FF
:1005C0000E5F1F4FA201CCD0782E7418FFE7BF2218
:1005D000B6FE0BC02EEFB2227E1438F4B4FE07C074
:1005E000B2FC05C08FEEB82202C0A72C01C0AE2C11
:1005F0008B2D90E0B4FE0DC0FE01E70DF11D2081B2
:10060000203319F4E9EEBE2209C0A394B2FE06C05D
:1006100004C086789070009709F0A3948B2C9924DD
:10062000B3FC13C0B0FE0EC0AF1428F4E72CEF0CDF
:10063000EA18AF2C07C0E72C05C080E290E0B601B5
:1006400063D0A394AF14C8F304C0AF1410F4FA1825
:1006500001C0FF2484FE0EC080E390E0B60154D0B8
:1006600082FE1DC081FE03C088E590E010C088E7CF
:1006700090E00DC0C40186789070009781F081FCF5
:1006800002C080E201C08BE2B7FC8DE290E0B601CF
:100690003BD005C080E390E0B60136D0EA947E14EA
:1006A000C8F37A94F201E70DF11D808190E0B60164
:1006B0002BD07720B1F705C080E290E0B60124D0BE
:1006C000FA94FF20C9F744CEF6012681378102C093
:1006D0002FEF3FEFC9012C96E2E1BCC0FC01059071
:1006E000615070400110D8F7809590958E0F9F1F34
:1006F0000895FC016150704001900110D8F7809579
:1007000090958E0F9F1F08950F931F93CF93DF93A4
:100710008C01EB018B8181FF1BC082FF0DC02E81FC
:100720003F818C819D812817390764F4E881F98124
:100730000193F983E88306C0E885F985802F099540
:10074000009731F48E819F8101969F838E8302C032
:100750000FEF1FEFC801DF91CF911F910F91089507
:10076000FA01AA27283051F1203181F1E8946F93E2
:100770006E7F6E5F7F4F8F4F9F4FAF4FB1E03ED088
:10078000B4E03CD0670F781F891F9A1FA11D680F26
:10079000791F8A1F911DA11D6A0F711D811D911D59
:1007A000A11D20D009F468943F912AE0269F1124CE
:1007B0003019305D3193DEF6CF010895462F477032
:1007C000405D4193B3E00FD0C9F7F6CF462F4F708D
:1007D000405D4A3318F0495D31FD4052419302D0EB
:1007E000A9F7EACFB4E0A695979587957795679591
:1007F000BA95C9F700976105710508959B01AC0191
:100800000A2E06945795479537952795BA95C9F7B7
:10081000620F731F841F951FA01D08952F923F9292
:100820004F925F926F927F928F929F92AF92BF9200
:10083000CF92DF92EF92FF920F931F93CF93DF93AC
:10084000CDB7DEB7CA1BDB0B0FB6F894DEBF0FBE09
:10085000CDBF09942A88398848885F846E847D8456
:100860008C849B84AA84B984C884DF80EE80FD8058
:100870000C811B81AA81B981CE0FD11D0FB6F894CE
:0E088000DEBF0FBECDBFED010895F894FFCF8F
:10088E0052315F320052325F320052315F300052CD
:10089E00325F30002C63002C6F000000000200005D
:0808AE0000002F000000000013
:00000001FF
