:1000000012C02CC02BC02AC029C028C027C026C0BF
:1000100025C024C023C054C021C020C01FC01EC0A2
:100020001DC01CC01BC011241FBECFE5D4E0DEBF25
:10003000CDBF10E0A0E6B0E0E8EAF8E002C005902D
:100040000D92AA38B107D9F710E0AAE8B0E001C0D4
:100050001D92A439B107E1F758D124C4D1CF8A3019
:1000600041F45D9BFECF8DE08CB95D9BFECF8AE0B5
:1000700002C05D9BFECF8CB980E090E00895F894BB
:1000800083E389B983E087BB8CE084BB82E081BBDA
:1000900081E085BB94E098BB98E99AB980938C0085
:1000A00080938D0010928A00C09AC19AAA9AAB9A46
:1000B0008CE790E09093910080939000789408955D
:1000C0001F920F920FB60F9211248F939F93AF93AD
:1000D000BF93F8945F9BFECF8CB180938B0080918F
:1000E0008B00813351F480918A00813011F4AA98F9
:1000F0004DC0AA9810928C0013C080918B0083335E
:1001000011F4AA9A43C080918B00843399F48091B2
:100110008A00813011F4AB9839C0AB9810928D00F1
:100120008FEF91E1AAE781509040A040E1F700C035
:1001300000002CC080918B00853311F4AB9A26C04F
:1001400080918B00863311F4C09A20C080918B007F
:10015000873311F4C0981AC080918B00883311F452
:10016000C19A14C080918B00893311F4C1980EC0DC
:1001700080918B00843521F481E080938A0006C051
:1001800080918B00863411F410928A007894BF918C
:10019000AF919F918F910F900FBE0F901F90189568
:1001A0006230710571F400D080E690E0EDB7FEB7E3
:1001B00092838183B6D082E080938C000F900F9061
:1001C00008956330710569F400D083E690E0EDB7DF
:1001D000FEB792838183A5D082E080938D000F903B
:1001E0000F90089580918A00882309F056C080916D
:1001F0008C00882399F4989925C000D086E690E079
:10020000ADB7BEB712969C938E9311978AD0AA9AD7
:1002100081E080938C000F900F9014C080918C002F
:10022000813081F4989B0EC08FEF91E1AAE7815055
:100230009040A040E1F700C0000083E090E062E061
:1002400070E0AEDF80918D00882389F4B2995CC0A4
:1002500000D089E690E0ADB7BEB712969C938E931E
:1002600011975FD0AB9A81E080938D003CC0809164
:100270008D00813009F048C0B29B46C08FEF91E1FC
:10028000AAE781509040A040E1F700C0000083E061
:1002900090E063E070E084DF089580918A0081300F
:1002A00099F5989906C0B29904C000D08CE690E008
:1002B00013C098990AC0B29B08C000D080E790E0B4
:1002C000EDB7FEB7928381830DC0989B0FC0B299A2
:1002D0000DC000D084E790E0ADB7BEB712969C93F6
:1002E0008E9311971ED00F900F900895989B0CC07D
:1002F000B29B0AC000D088E790E0EDB7FEB79283CA
:1003000081830FD00F900F900895B9DE6BDF8FEFD0
:1003100099E6A8E181509040A040E1F700C00000BC
:10032000F5CFA0E0B0E0E6E9F1E095C2FE01359638
:10033000619171918091900090919100AF0103D0F3
:100340002096E2E0A4C2ACE0B0E0E8EAF1E073C2DB
:100350006C011B018A01FC0117821682838181FFD7
:10036000C4C12E010894411C511CF6019381F10176
:1003700093FD859193FF81911F01882309F4B1C1F9
:10038000853239F493FD859193FF81911F01853268
:1003900021F490E0B601C5D1E8CFEE24FF2420E09F
:1003A0002032B0F48B3269F08C3228F4803251F074
:1003B000833271F40BC08D3239F0803349F42160FF
:1003C0002CC02260246029C0286027C0206125C07D
:1003D00027FD2CC0382F30533A3098F426FF08C040
:1003E0008E2D880FE82EEE0CEE0CE80EE30E15C0F5
:1003F0008F2D880FF82EFF0CFF0CF80EF30E2062E5
:100400000CC08E3221F426FD6CC1206406C08C36EF
:1004100011F4206802C0883649F4F10193FD8591FA
:1004200093FF81911F01882309F0BACF982F95542B
:10043000933018F09052933028F40C5F1F4FFFE375
:10044000F9830DC0833631F0833771F0833509F0BD
:100450005CC021C0F801808189830E5F1F4F42017B
:1004600071E0A72EB12C15C062E0662E712C600ED3
:10047000711EF8018080918026FF03C06E2D70E010
:1004800002C06FEF7FEFC4012C8740D15C01830174
:100490002C852F7716C052E0652E712C600E711ED0
:1004A000F8018080918026FF03C06E2D70E002C0AD
:1004B0006FEF7FEFC4012C871ED15C012C85206873
:1004C000830123FD1EC007C080E290E0B6012C87A7
:1004D00028D1FA942C858F2D90E0A816B906A0F3A8
:1004E00010C0F40127FD859127FF81914F0190E015
:1004F000B6012C8716D12C85F110FA940894A10826
:10050000B108A114B10469F7E9C0843611F0893645
:1005100041F527FF08C0F8016081718182819381D4
:100520000C5F1F4F09C0F80160817181882777FD3A
:100530008095982F0E5F1F4F4FE6B42EB22297FF83
:1005400009C090958095709561957F4F8F4F9F4F13
:10055000F0E8BF2AA2012AE030E00FD1782E74180B
:1005600044C0853731F43FEEB32EB2222AE030E0AA
:1005700025C099EFB92EB2228F36C1F0803720F412
:10058000883509F0AEC00DC0803721F0883709F0FA
:10059000A8C002C020E1B22AB4FE0BC084E0B82A91
:1005A00008C0B4FE09C0E6E0BE2A06C028E030E07C
:1005B00005C020E130E002C020E132E0B7FE08C013
:1005C000F80160817181828193810C5F1F4F07C0A8
:1005D000F8016081718180E090E00E5F1F4FA20101
:1005E000CCD0782E7418FFE7BF22B6FE0BC02EEFDA
:1005F000B2227E1438F4B4FE07C0B2FC05C08FEE00
:10060000B82202C0A72C01C0AE2C8B2D90E0B4FE06
:100610000DC0FE01E70DF11D2081203319F4E9EE34
:10062000BE2209C0A394B2FE06C004C086789070B2
:10063000009709F0A3948B2C9924B3FC13C0B0FE4F
:100640000EC0AF1428F4E72CEF0CEA18AF2C07C04B
:10065000E72C05C080E290E0B60163D0A394AF140C
:10066000C8F304C0AF1410F4FA1801C0FF2484FECC
:100670000EC080E390E0B60154D082FE1DC081FE22
:1006800003C088E590E010C088E790E00DC0C40189
:1006900086789070009781F081FC02C080E201C0F2
:1006A0008BE2B7FC8DE290E0B6013BD005C080E361
:1006B00090E0B60136D0EA947E14C8F37A94F20141
:1006C000E70DF11D808190E0B6012BD07720B1F7C6
:1006D00005C080E290E0B60124D0FA94FF20C9F76B
:1006E00044CEF6012681378102C02FEF3FEFC901CA
:1006F0002C96E2E1BCC0FC010590615070400110F5
:10070000D8F7809590958E0F9F1F0895FC0161503A
:10071000704001900110D8F7809590958E0F9F1F23
:1007200008950F931F93CF93DF938C01EB018B817F
:1007300081FF1BC082FF0DC02E813F818C819D8176
:100740002817390764F4E881F9810193F983E88374
:1007500006C0E885F985802F0995009731F48E81D0
:100760009F8101969F838E8302C00FEF1FEFC80108
:10077000DF91CF911F910F910895FA01AA27283098
:1007800051F1203181F1E8946F936E7F6E5F7F4F5E
:100790008F4F9F4FAF4FB1E03ED0B4E03CD0670FDA
:1007A000781F891F9A1FA11D680F791F8A1F911D2D
:1007B000A11D6A0F711D811D911DA11D20D009F47D
:1007C00068943F912AE0269F11243019305D3193BF
:1007D000DEF6CF010895462F4770405D4193B3E0A8
:1007E0000FD0C9F7F6CF462F4F70405D4A3318F04F
:1007F000495D31FD4052419302D0A9F7EACFB4E000
:10080000A6959795879577956795BA95C9F70097B7
:100810006105710508959B01AC010A2E0694579558
:10082000479537952795BA95C9F7620F731F841FAF
:10083000951FA01D08952F923F924F925F926F9245
:100840007F928F929F92AF92BF92CF92DF92EF9260
:10085000FF920F931F93CF93DF93CDB7DEB7CA1BE1
:10086000DB0B0FB6F894DEBF0FBECDBF09942A880C
:10087000398848885F846E847D848C849B84AA84B4
:10088000B984C884DF80EE80FD800C811B81AA8141
:10089000B981CE0FD11D0FB6F894DEBF0FBECDBF0C
:0808A000ED010895F894FFCF6B
:1008A800313200323200313000323000632C6300C4
:1008B800632C6F006F2C63006F2C6F000000000228
:0A08C800000000002F0000000000F7
:00000001FF
